:1000000000000420450100007D00000041000000C8
:100010007F0000008100000083000000000000005D
:10002000000000000000000000000000850000004B
:100030008700000000000000890000008B00000025
:1000400008490A68002AFED41EF0040F0CBFEFF323
:100050000880EFF3098042F000420A6081690231B2
:08006000816170472CED00E006
:10006800034C206804348047FBE700F00BF8FEE7F8
:04007800F40100008F
:02007C00FEE79D
:02007E00FEE79B
:02008000FEE799
:02008200FEE797
:02008400FEE795
:02008600FEE793
:02008800FEE791
:02008A00FEE78F
:10008C0000B585B00020049040F2EC10C0F20000E6
:10009C008188ADF80C100068029018208DF80800CB
:1000AC0002A800F00CF81820019000F079F800F08C
:0E00BC0047F8019800F054F800F042F8F3E71E
:1000CA0084B00390002000900398007840F2003139
:1000DA00C5F20001202838BF4FF0A04102910398D1
:1000EA00007800F01F008DF8070003984078009907
:1000FA0040EA0100009003980079009941EA400023
:10010A0000900398C078009941EA80000090039813
:10011A008078009941EA002000900398407900997C
:10012A0041EA00400090009802999DF8072001EBEF
:0A013A008201C1F8000704B070470D
:08014400AFF30080FFF78EFF0E
:10014C0081B00020009000984AF21F11C0F2070104
:10015C00884203D8009801300090F4E701B0704752
:10016C0083B001468DF80B009DF80B0040F2003275
:10017C00C5F20002202838BF4FF0A04201929DF832
:10018C000B0000F01F008DF803009DF803004FF0EA
:10019C00010202FA00F0019AC2F8080503B0704798
:1001AC0083B001468DF80B009DF80B0040F2003235
:1001BC00C5F20002202838BF4FF0A04201929DF8F2
:1001CC000B0000F01F008DF803009DF803004FF0AA
:1001DC00010202FA00F0019AC2F80C0503B0704754
:0601EC000001000001000B
:0401F4007300000094
:0400000300000145B3
:00000001FF
