:10000000000001202F0600005B04000041000000FA
:100010005D0400005F0400006104000000000000B7
:100020000000000000000000000000006304000069
:10003000650400000000000067040000690400007F
:1000400008490A68002AFED41EF0040F0CBFEFF323
:100050000880EFF3098042F000420A6081690231B2
:08006000816170472CED00E006
:10006800034C206804348047FBE700F0E0FAFEE721
:040078007407000009
:10007C00024610F0030F14D111F0030F11D1F0B49C
:10008C004FF001374FF0803351F8044BA4EB0705C8
:10009C0025EA04051D4002D142F8044BF4E704396B
:1000AC00F0BC11F8013B02F8013B002BF9D1704771
:1000BC00844640EA010313F0030F18D18446202A2A
:1000CC000BD32DE9F007B1E8F807A0E8F807A2F187
:1000DC002002202AF7D2BDE8F007042A07D351F8F2
:1000EC00043B40F8043BA2F10402042AF7D22AB1E3
:1000FC0011F8013B00F8013B013AF9D16046704719
:10010C002DE9F04F83B015468A4606460020306034
:10011C000DF10108A8F1010902E0002900F092811B
:10012C00D3461BF8011B252907D0002900F07E813E
:10013C00304600F047FADA46F2E70AF1020A0020EC
:10014C001AF8011CA1F120030B2B11D88022DFE837
:10015C0003F00A3B3B063B3B3B0C3B3B3B27104332
:10016C000AF1010AECE74022F9E74FF40042F6E706
:10017C00A1F15E021C2A27D8DFE802F00F26262602
:10018C002626262626261726262626262626262612
:10019C00262614262626262614004FF48052DEE747
:1001AC002022DCE71AF8011B0EE0524612F8011B64
:1001BC00682906D19AF801100AF1020A40F00800E9
:1001CC0002E040F004009246A1F12502532A3FF6CA
:1001DC00A4AF0024DFE802F02E2A2A2A2A2A2A2A8F
:1001EC002A2A2A2A2A2A2A2A2A2A2A2A2A2A2A2A63
:1001FC002A2A2A2A2A2A2A2A2A2A2A2A2A2A2A2A53
:10020C002A2A2A2A2A2A2A2A2A2A2A332A2A2A2A39
:10021C002A2A2A2A2A2A392B2A2A2A2A2B2A2A2A21
:10022C002A3F474C2A2A552A6E2A2A3578E740F469
:10023C00804008E03046252100F0C4F970E740F416
:10024C000050020630D4002434E015F8041B30466C
:10025C0000F0B8F964E7000700F1E3802868316822
:10026C00016004355CE70206302303EAE27421E006
:10027C000106232202EAE17440F4807055F8042B45
:10028C0053E055F8040B017800293FF449AFA0F175
:10029C00010B304600F096F90BF101009BF80210AF
:1002AC0000298346F5D13BE7782943F2580408BF6F
:1002BC0043F2780400F0040355F8042BAB464504D4
:1002CC0004D44BB9030748BFD2B206E03BB90307CD
:1002DC0006D5D2B25D4606E092B25D460DE012B292
:1002EC005D46002A07DB830603D4430648BF20245F
:1002FC0003E02B2401E052422D24583900272029F9
:10030C0000F27280DFE801F0117070707070707024
:10031C007070707038707070703870707070705C55
:10032C0011707070703870701100002A63D0CE4656
:10033C00AC4600F400514FF0FF30002740F26379D7
:10034C00C0F2000940F2537BC0F2000B00295B465F
:10035C0008BF4B4602F00F055B5D08EB0005013052
:10036C006B701309B7EB121F1A46EFD1471C654689
:10037C00F146FF2C3AD844E0EAB300F400400027E1
:10038C004FF02C0B11E04CF6CD42CCF6CC42A1FB3D
:10039C000223DA0802EB8203A1EB430343F03003A0
:1003AC0008F8073001370A291ED311460028EAD075
:1003BC0007F00302032A04BF08F807B00137E2E78D
:1003CC00CAB14FF0FF304FF0000C4FF0060B08EBAA
:1003DC00000113466BF3DF034B700130D108BCEB0B
:1003EC00D20F0A46F3D1471CFF2C0AD9210A3046FA
:1003FC0000F0E8F806E030208DF801000127FF2C12
:10040C00F4D81CB13046214600F0DCF8012FFFF681
:10041C0087AE19F80710304600F0D4F8013FF8DC2D
:10042C007EE6286831680170043579E6F06828B1F9
:10043C00D6E90012914201D200224254306803B036
:0E044C00BDE8F08F4FF0FF3003B0BDE8F08F39
:02045A00FEE7BB
:02045C00FEE7B9
:02045E00FEE7B7
:02046000FEE7B5
:02046200FEE7B3
:02046400FEE7B1
:02046600FEE7AF
:02046800FEE7AD
:10046A0010B5144600EB400040F20002C2F200024E
:10047A0002EBC00202F11800D36A022B0CD0012B46
:10048A000FD043BB536AD2F828C09C451DD9DA4322
:10049A006244A24214D21EE02246BDE8104000F097
:1004AA001CB8536AD2F828C09C4502D9DA43624480
:1004BA0003E0DB436344126A1A44A24238BF14467B
:1004CA00224600F00DF9204610BDDB436344126A50
:0A04DA001A44A242F4D2002010BD23
:1004E4002DE9F843144689460646C5684FF00008CE
:1004F40019E00844B268811870682844571BB9424F
:1005040038BF0F46A74228BF274649463A46FFF759
:10051400D3FD7819B168451A18BF0546F560E41B88
:10052400B944B84406D03069E943A842E1D901444A
:0A053400B268E1E74046BDE8F88335
:10053E002DE9F04190460D4640F20007C2F2000749
:10054E000646387870BB0020B8624FF4806C40F2DB
:10055E00780EC2F2000E40F24673C0F20003022182
:10056E00102240F27844C2F20004C7E912343A6510
:10057E00F862C7E90411C7E9063EC7E908C0C7E932
:10058E0016007865F81D40F24F71C0F20001FFF7BA
:10059E006EFD40F22E71C0F200013846FFF767FD86
:1005AE002020B871EFF311844FF0200181F31188F0
:1005BE00304629464246FFF751FF84F31188BDE8C5
:0205CE00F081BA
:1005D00010B50446D0F80CC0BCF1000F0AD0D4E925
:1005E00000239A421FD2501CC01A18BF08460CF8AC
:1005F000020018E0D4F808C0BCF1000F0AD0D4E91A
:1006000000239A420FD2501CC01A18BF08464CF85B
:10061000220008E0226932B1D4E90003984202D2F4
:0E06200008462146904720680130206010BD3A
:08062E00AFF30080FFF719FD96
:1006360000B583B0002002900190019863280ADC7F
:10064600019940F23570C0F2000000F021F80198DF
:1006560001300190F1E70198013001900120002856
:08066600F9D1029803B000BDB8
:10066E0038B50C464A69511C616104F11801885471
:10067E006069402806D1002500204022FFF758FF70
:08068E00656138BD002038BD94
:1006960083B030B598B084461BA80EC000200490E5
:1006A600079040F26F61C0F2000106916FF00041C1
:1006B600039105901BAA019202AC20466146FFF702
:1006C60022FD0546079A04F118010020FFF734FFC2
:1006D6000028B8BF4FF0FF35284618B0BDE83040B7
:0406E60003B07047A6
:1006EA002DE9F0411546884604464068D4E90216C9
:1006FA0030448F1B974207D941462A46FFF7D9FC57
:10070A003544E560BDE8F08141463A46FFF7D1FC41
:10071A0008EB0701ED1B60682A46FFF7CAFCE56093
:04072A00BDE8F081B5
:07072E005345474745520007
:1007350048656C6C6F20576F726C64202564210AC4
:0107450000B3
:090746005465726D696E616C006E
:04074F0052545400AC
:1007530030313233343536373839414243444546F4
:100763003031323334353637383961626364656624
:1007740085070000000000208804000073000000CA
:10078400206861680834002200E042540139FCD535
:020794007047AC
:040000030000062FC4
:00000001FF
